:100000000EC039C038C037C036C035C034C033C068
:1000100032C031C030C02FC02EC02DC02CC0112422
:100020001FBECFE5D2E0DEBFCDBF03D01DC0F89428
:02003000FFCF00
:1000320082E087BB81E088BBB09904C088B382604C
:1000420088BBFACF88B38D7F88BB89EC98E0019793
:10005200F1F700C0000088B3826088BB92E49A95F1
:06006200F1F700C0E9CF38
:0E006800EC0107D005D0CE0105D0CE0104D0AA
:02007600C4CFF5
:020078000895E9
:02007A000895E7
:02007C000895E5
:02007E00D7DFCA
:00000001FF
