:100000000EC041C040C03FC03EC03DC03CC03BC030
:100010003AC039C00EC037C036C035C034C0112414
:100020001FBECFE5D2E0DEBFCDBF16D025C0F8940D
:02003000FFCF00
:100032001F920F920FB60F9211248F939F9398B332
:1000420081E0892788BB12BE9F918F910F900FBECE
:060052000F901F901895AD
:1000580081E087BB88B38E7F88BB82E08ABD85E05C
:1000680083BF89EF89BD89B7806189BF7894FFCF45
:0E007800EC0107D005D0CE0105D0CE0104D09A
:02008600BCCFED
:020088000895D9
:02008A000895D7
:02008C000895D5
:02008E00CFDFC2
:00000001FF
