:1000000011C09AC099C098C097C096C095C094C0BE
:1000100093C092C02FC090C08FC08EC08DC00060B2
:100020000062800011241FBECFE5D2E0DEBFCDBF4D
:10003000EEE1F0E040E017C0B591A5913591259132
:10004000059107FD0CC095918591EF01F92FE82FDF
:1000500005900D92A217B307D9F7FE0104C01D92B7
:10006000A217B307E1F7E332F40731F743D05DC0DD
:04007000F894FFCF32
:100074001F920F920FB60F9211248F939F9380912A
:1000840060009091610080FF04C088B3816088BBE8
:1000940003C088B38E7F88BB80916000909161001B
:1000A400969587959093610080936000809160009D
:1000B40090916100892B11F412BE13BE9F918F9110
:0A00C4000F900FBE0F901F901895CB
:1000CE0090E0880F991F909361008093600080915B
:1000DE006000909161009260909361008093600047
:0600EE0081E083BF0895CC
:1000F40081E087BB88B3816088BB0CD08AE5E5DFEB
:100104002FE38DE093E0215080409040E1F700C060
:040114000000F4CF24
:1001180082E08ABD89EF89BD89B7806189BF7894FB
:02012800089538
:0E012A00EC0107D005D0CE0105D0CE0104D0E7
:0201380063CF93
:02013A00089526
:02013C00089524
:02013E00089522
:0201400097DF47
:00000001FF
